{
  "_format": "hh-sol-artifact-1",
  "contractName": "CertificateNFT",
  "sourceName": "contracts/CertificateNFT.sol",
  "abi": [
    {
      "inputs": [
        {
          "internalType": "address",
          "name": "initialOwner",
          "type": "address"
        }
      ],
      "stateMutability": "nonpayable",
      "type": "constructor"
    },
    {
      "inputs": [
        {
          "internalType": "address",
          "name": "sender",
          "type": "address"
        },
        {
          "internalType": "uint256",
          "name": "tokenId",
          "type": "uint256"
        },
        {
          "internalType": "address",
          "name": "owner",
          "type": "address"
        }
      ],
      "name": "ERC721IncorrectOwner",
      "type": "error"
    },
    {
      "inputs": [
        {
          "internalType": "address",
          "name": "operator",
          "type": "address"
        },
        {
          "internalType": "uint256",
          "name": "tokenId",
          "type": "uint256"
        }
      ],
      "name": "ERC721InsufficientApproval",
      "type": "error"
    },
    {
      "inputs": [
        {
          "internalType": "address",
          "name": "approver",
          "type": "address"
        }
      ],
      "name": "ERC721InvalidApprover",
      "type": "error"
    },
    {
      "inputs": [
        {
          "internalType": "address",
          "name": "operator",
          "type": "address"
        }
      ],
      "name": "ERC721InvalidOperator",
      "type": "error"
    },
    {
      "inputs": [
        {
          "internalType": "address",
          "name": "owner",
          "type": "address"
        }
      ],
      "name": "ERC721InvalidOwner",
      "type": "error"
    },
    {
      "inputs": [
        {
          "internalType": "address",
          "name": "receiver",
          "type": "address"
        }
      ],
      "name": "ERC721InvalidReceiver",
      "type": "error"
    },
    {
      "inputs": [
        {
          "internalType": "address",
          "name": "sender",
          "type": "address"
        }
      ],
      "name": "ERC721InvalidSender",
      "type": "error"
    },
    {
      "inputs": [
        {
          "internalType": "uint256",
          "name": "tokenId",
          "type": "uint256"
        }
      ],
      "name": "ERC721NonexistentToken",
      "type": "error"
    },
    {
      "inputs": [
        {
          "internalType": "address",
          "name": "owner",
          "type": "address"
        }
      ],
      "name": "OwnableInvalidOwner",
      "type": "error"
    },
    {
      "inputs": [
        {
          "internalType": "address",
          "name": "account",
          "type": "address"
        }
      ],
      "name": "OwnableUnauthorizedAccount",
      "type": "error"
    },
    {
      "anonymous": false,
      "inputs": [
        {
          "indexed": true,
          "internalType": "address",
          "name": "owner",
          "type": "address"
        },
        {
          "indexed": true,
          "internalType": "address",
          "name": "approved",
          "type": "address"
        },
        {
          "indexed": true,
          "internalType": "uint256",
          "name": "tokenId",
          "type": "uint256"
        }
      ],
      "name": "Approval",
      "type": "event"
    },
    {
      "anonymous": false,
      "inputs": [
        {
          "indexed": true,
          "internalType": "address",
          "name": "owner",
          "type": "address"
        },
        {
          "indexed": true,
          "internalType": "address",
          "name": "operator",
          "type": "address"
        },
        {
          "indexed": false,
          "internalType": "bool",
          "name": "approved",
          "type": "bool"
        }
      ],
      "name": "ApprovalForAll",
      "type": "event"
    },
    {
      "anonymous": false,
      "inputs": [
        {
          "indexed": false,
          "internalType": "uint256",
          "name": "_fromTokenId",
          "type": "uint256"
        },
        {
          "indexed": false,
          "internalType": "uint256",
          "name": "_toTokenId",
          "type": "uint256"
        }
      ],
      "name": "BatchMetadataUpdate",
      "type": "event"
    },
    {
      "anonymous": false,
      "inputs": [
        {
          "indexed": false,
          "internalType": "uint256",
          "name": "_tokenId",
          "type": "uint256"
        }
      ],
      "name": "MetadataUpdate",
      "type": "event"
    },
    {
      "anonymous": false,
      "inputs": [
        {
          "indexed": true,
          "internalType": "address",
          "name": "previousOwner",
          "type": "address"
        },
        {
          "indexed": true,
          "internalType": "address",
          "name": "newOwner",
          "type": "address"
        }
      ],
      "name": "OwnershipTransferred",
      "type": "event"
    },
    {
      "anonymous": false,
      "inputs": [
        {
          "indexed": true,
          "internalType": "address",
          "name": "from",
          "type": "address"
        },
        {
          "indexed": true,
          "internalType": "address",
          "name": "to",
          "type": "address"
        },
        {
          "indexed": true,
          "internalType": "uint256",
          "name": "tokenId",
          "type": "uint256"
        }
      ],
      "name": "Transfer",
      "type": "event"
    },
    {
      "inputs": [
        {
          "internalType": "address",
          "name": "to",
          "type": "address"
        },
        {
          "internalType": "uint256",
          "name": "tokenId",
          "type": "uint256"
        }
      ],
      "name": "approve",
      "outputs": [],
      "stateMutability": "nonpayable",
      "type": "function"
    },
    {
      "inputs": [
        {
          "internalType": "address",
          "name": "owner",
          "type": "address"
        }
      ],
      "name": "balanceOf",
      "outputs": [
        {
          "internalType": "uint256",
          "name": "",
          "type": "uint256"
        }
      ],
      "stateMutability": "view",
      "type": "function"
    },
    {
      "inputs": [
        {
          "internalType": "uint256",
          "name": "tokenId",
          "type": "uint256"
        }
      ],
      "name": "getApproved",
      "outputs": [
        {
          "internalType": "address",
          "name": "",
          "type": "address"
        }
      ],
      "stateMutability": "view",
      "type": "function"
    },
    {
      "inputs": [
        {
          "internalType": "address",
          "name": "owner",
          "type": "address"
        },
        {
          "internalType": "address",
          "name": "operator",
          "type": "address"
        }
      ],
      "name": "isApprovedForAll",
      "outputs": [
        {
          "internalType": "bool",
          "name": "",
          "type": "bool"
        }
      ],
      "stateMutability": "view",
      "type": "function"
    },
    {
      "inputs": [
        {
          "internalType": "address",
          "name": "recipient",
          "type": "address"
        },
        {
          "internalType": "string",
          "name": "tokenURI",
          "type": "string"
        }
      ],
      "name": "mintCertificate",
      "outputs": [
        {
          "internalType": "uint256",
          "name": "",
          "type": "uint256"
        }
      ],
      "stateMutability": "nonpayable",
      "type": "function"
    },
    {
      "inputs": [],
      "name": "name",
      "outputs": [
        {
          "internalType": "string",
          "name": "",
          "type": "string"
        }
      ],
      "stateMutability": "view",
      "type": "function"
    },
    {
      "inputs": [],
      "name": "owner",
      "outputs": [
        {
          "internalType": "address",
          "name": "",
          "type": "address"
        }
      ],
      "stateMutability": "view",
      "type": "function"
    },
    {
      "inputs": [
        {
          "internalType": "uint256",
          "name": "tokenId",
          "type": "uint256"
        }
      ],
      "name": "ownerOf",
      "outputs": [
        {
          "internalType": "address",
          "name": "",
          "type": "address"
        }
      ],
      "stateMutability": "view",
      "type": "function"
    },
    {
      "inputs": [],
      "name": "renounceOwnership",
      "outputs": [],
      "stateMutability": "nonpayable",
      "type": "function"
    },
    {
      "inputs": [
        {
          "internalType": "address",
          "name": "from",
          "type": "address"
        },
        {
          "internalType": "address",
          "name": "to",
          "type": "address"
        },
        {
          "internalType": "uint256",
          "name": "tokenId",
          "type": "uint256"
        }
      ],
      "name": "safeTransferFrom",
      "outputs": [],
      "stateMutability": "nonpayable",
      "type": "function"
    },
    {
      "inputs": [
        {
          "internalType": "address",
          "name": "from",
          "type": "address"
        },
        {
          "internalType": "address",
          "name": "to",
          "type": "address"
        },
        {
          "internalType": "uint256",
          "name": "tokenId",
          "type": "uint256"
        },
        {
          "internalType": "bytes",
          "name": "data",
          "type": "bytes"
        }
      ],
      "name": "safeTransferFrom",
      "outputs": [],
      "stateMutability": "nonpayable",
      "type": "function"
    },
    {
      "inputs": [
        {
          "internalType": "address",
          "name": "operator",
          "type": "address"
        },
        {
          "internalType": "bool",
          "name": "approved",
          "type": "bool"
        }
      ],
      "name": "setApprovalForAll",
      "outputs": [],
      "stateMutability": "nonpayable",
      "type": "function"
    },
    {
      "inputs": [
        {
          "internalType": "bytes4",
          "name": "interfaceId",
          "type": "bytes4"
        }
      ],
      "name": "supportsInterface",
      "outputs": [
        {
          "internalType": "bool",
          "name": "",
          "type": "bool"
        }
      ],
      "stateMutability": "view",
      "type": "function"
    },
    {
      "inputs": [],
      "name": "symbol",
      "outputs": [
        {
          "internalType": "string",
          "name": "",
          "type": "string"
        }
      ],
      "stateMutability": "view",
      "type": "function"
    },
    {
      "inputs": [
        {
          "internalType": "uint256",
          "name": "tokenId",
          "type": "uint256"
        }
      ],
      "name": "tokenURI",
      "outputs": [
        {
          "internalType": "string",
          "name": "",
          "type": "string"
        }
      ],
      "stateMutability": "view",
      "type": "function"
    },
    {
      "inputs": [
        {
          "internalType": "address",
          "name": "from",
          "type": "address"
        },
        {
          "internalType": "address",
          "name": "to",
          "type": "address"
        },
        {
          "internalType": "uint256",
          "name": "tokenId",
          "type": "uint256"
        }
      ],
      "name": "transferFrom",
      "outputs": [],
      "stateMutability": "nonpayable",
      "type": "function"
    },
    {
      "inputs": [
        {
          "internalType": "address",
          "name": "newOwner",
          "type": "address"
        }
      ],
      "name": "transferOwnership",
      "outputs": [],
      "stateMutability": "nonpayable",
      "type": "function"
    }
  ],
  "bytecode": "0x608060405234801561001057600080fd5b50604051612c29380380612c2983398181016040528101906100329190610272565b806040518060400160405280601181526020017f436f7572736543657274696669636174650000000000000000000000000000008152506040518060400160405280600481526020017f434552540000000000000000000000000000000000000000000000000000000081525081600090816100ae91906104ef565b5080600190816100be91906104ef565b505050600073ffffffffffffffffffffffffffffffffffffffff168173ffffffffffffffffffffffffffffffffffffffff16036101335760006040517f1e4fbdf700000000000000000000000000000000000000000000000000000000815260040161012a91906105d0565b60405180910390fd5b6101428161014960201b60201c565b50506105eb565b6000600760009054906101000a900473ffffffffffffffffffffffffffffffffffffffff16905081600760006101000a81548173ffffffffffffffffffffffffffffffffffffffff021916908373ffffffffffffffffffffffffffffffffffffffff1602179055508173ffffffffffffffffffffffffffffffffffffffff168173ffffffffffffffffffffffffffffffffffffffff167f8be0079c531659141344cd1fd0a4f28419497f9722a3daafe3b4186f6b6457e060405160405180910390a35050565b600080fd5b600073ffffffffffffffffffffffffffffffffffffffff82169050919050565b600061023f82610214565b9050919050565b61024f81610234565b811461025a57600080fd5b50565b60008151905061026c81610246565b92915050565b6000602082840312156102885761028761020f565b5b60006102968482850161025d565b91505092915050565b600081519050919050565b7f4e487b7100000000000000000000000000000000000000000000000000000000600052604160045260246000fd5b7f4e487b7100000000000000000000000000000000000000000000000000000000600052602260045260246000fd5b6000600282049050600182168061032057607f821691505b602082108103610333576103326102d9565b5b50919050565b60008190508160005260206000209050919050565b60006020601f8301049050919050565b600082821b905092915050565b60006008830261039b7fffffffffffffffffffffffffffffffffffffffffffffffffffffffffffffffff8261035e565b6103a5868361035e565b95508019841693508086168417925050509392505050565b6000819050919050565b6000819050919050565b60006103ec6103e76103e2846103bd565b6103c7565b6103bd565b9050919050565b6000819050919050565b610406836103d1565b61041a610412826103f3565b84845461036b565b825550505050565b600090565b61042f610422565b61043a8184846103fd565b505050565b5b8181101561045e57610453600082610427565b600181019050610440565b5050565b601f8211156104a35761047481610339565b61047d8461034e565b8101602085101561048c578190505b6104a06104988561034e565b83018261043f565b50505b505050565b600082821c905092915050565b60006104c6600019846008026104a8565b1980831691505092915050565b60006104df83836104b5565b9150826002028217905092915050565b6104f88261029f565b67ffffffffffffffff811115610511576105106102aa565b5b61051b8254610308565b610526828285610462565b600060209050601f8311600181146105595760008415610547578287015190505b61055185826104d3565b8655506105b9565b601f19841661056786610339565b60005b8281101561058f5784890151825560018201915060208501945060208101905061056a565b868310156105ac57848901516105a8601f8916826104b5565b8355505b6001600288020188555050505b505050505050565b6105ca81610234565b82525050565b60006020820190506105e560008301846105c1565b92915050565b61262f806105fa6000396000f3fe608060405234801561001057600080fd5b506004361061010b5760003560e01c806370a08231116100a2578063a22cb46511610071578063a22cb465146102b8578063b88d4fde146102d4578063c87b56dd146102f0578063e985e9c514610320578063f2fde38b146103505761010b565b806370a0823114610242578063715018a6146102725780638da5cb5b1461027c57806395d89b411461029a5761010b565b8063095ea7b3116100de578063095ea7b3146101be57806323b872dd146101da57806342842e0e146101f65780636352211e146102125761010b565b806301ffc9a71461011057806306fdde03146101405780630712249f1461015e578063081812fc1461018e575b600080fd5b61012a60048036038101906101259190611a9b565b61036c565b6040516101379190611ae3565b60405180910390f35b6101486103cd565b6040516101559190611b8e565b60405180910390f35b61017860048036038101906101739190611d43565b61045f565b6040516101859190611db8565b60405180910390f35b6101a860048036038101906101a39190611dff565b6104a8565b6040516101b59190611e3b565b60405180910390f35b6101d860048036038101906101d39190611e56565b6104c4565b005b6101f460048036038101906101ef9190611e96565b6104da565b005b610210600480360381019061020b9190611e96565b6105dc565b005b61022c60048036038101906102279190611dff565b6105fc565b6040516102399190611e3b565b60405180910390f35b61025c60048036038101906102579190611ee9565b61060e565b6040516102699190611db8565b60405180910390f35b61027a6106c8565b005b6102846106dc565b6040516102919190611e3b565b60405180910390f35b6102a2610706565b6040516102af9190611b8e565b60405180910390f35b6102d260048036038101906102cd9190611f42565b610798565b005b6102ee60048036038101906102e99190612023565b6107ae565b005b61030a60048036038101906103059190611dff565b6107d3565b6040516103179190611b8e565b60405180910390f35b61033a600480360381019061033591906120a6565b6108e6565b6040516103479190611ae3565b60405180910390f35b61036a60048036038101906103659190611ee9565b61097a565b005b6000634906490660e01b7bffffffffffffffffffffffffffffffffffffffffffffffffffffffff1916827bffffffffffffffffffffffffffffffffffffffffffffffffffffffff191614806103c657506103c582610a00565b5b9050919050565b6060600080546103dc90612115565b80601f016020809104026020016040519081016040528092919081815260200182805461040890612115565b80156104555780601f1061042a57610100808354040283529160200191610455565b820191906000526020600020905b81548152906001019060200180831161043857829003601f168201915b5050505050905090565b6000610469610ae2565b600060085490506001600860008282546104839190612175565b925050819055506104948482610b69565b61049e8184610c62565b8091505092915050565b60006104b382610cbe565b506104bd82610d46565b9050919050565b6104d682826104d1610d83565b610d8b565b5050565b600073ffffffffffffffffffffffffffffffffffffffff168273ffffffffffffffffffffffffffffffffffffffff160361054c5760006040517f64a0ae920000000000000000000000000000000000000000000000000000000081526004016105439190611e3b565b60405180910390fd5b6000610560838361055b610d83565b610d9d565b90508373ffffffffffffffffffffffffffffffffffffffff168173ffffffffffffffffffffffffffffffffffffffff16146105d6578382826040517f64283d7b0000000000000000000000000000000000000000000000000000000081526004016105cd939291906121a9565b60405180910390fd5b50505050565b6105f7838383604051806020016040528060008152506107ae565b505050565b600061060782610cbe565b9050919050565b60008073ffffffffffffffffffffffffffffffffffffffff168273ffffffffffffffffffffffffffffffffffffffff16036106815760006040517f89c62b640000000000000000000000000000000000000000000000000000000081526004016106789190611e3b565b60405180910390fd5b600360008373ffffffffffffffffffffffffffffffffffffffff1673ffffffffffffffffffffffffffffffffffffffff168152602001908152602001600020549050919050565b6106d0610ae2565b6106da6000610fb7565b565b6000600760009054906101000a900473ffffffffffffffffffffffffffffffffffffffff16905090565b60606001805461071590612115565b80601f016020809104026020016040519081016040528092919081815260200182805461074190612115565b801561078e5780601f106107635761010080835404028352916020019161078e565b820191906000526020600020905b81548152906001019060200180831161077157829003601f168201915b5050505050905090565b6107aa6107a3610d83565b838361107d565b5050565b6107b98484846104da565b6107cd6107c4610d83565b858585856111ec565b50505050565b60606107de82610cbe565b5060006006600084815260200190815260200160002080546107ff90612115565b80601f016020809104026020016040519081016040528092919081815260200182805461082b90612115565b80156108785780601f1061084d57610100808354040283529160200191610878565b820191906000526020600020905b81548152906001019060200180831161085b57829003601f168201915b50505050509050600061088961139d565b9050600081510361089e5781925050506108e1565b6000825111156108d35780826040516020016108bb92919061221c565b604051602081830303815290604052925050506108e1565b6108dc846113b4565b925050505b919050565b6000600560008473ffffffffffffffffffffffffffffffffffffffff1673ffffffffffffffffffffffffffffffffffffffff16815260200190815260200160002060008373ffffffffffffffffffffffffffffffffffffffff1673ffffffffffffffffffffffffffffffffffffffff16815260200190815260200160002060009054906101000a900460ff16905092915050565b610982610ae2565b600073ffffffffffffffffffffffffffffffffffffffff168173ffffffffffffffffffffffffffffffffffffffff16036109f45760006040517f1e4fbdf70000000000000000000000000000000000000000000000000000000081526004016109eb9190611e3b565b60405180910390fd5b6109fd81610fb7565b50565b60007f80ac58cd000000000000000000000000000000000000000000000000000000007bffffffffffffffffffffffffffffffffffffffffffffffffffffffff1916827bffffffffffffffffffffffffffffffffffffffffffffffffffffffff19161480610acb57507f5b5e139f000000000000000000000000000000000000000000000000000000007bffffffffffffffffffffffffffffffffffffffffffffffffffffffff1916827bffffffffffffffffffffffffffffffffffffffffffffffffffffffff1916145b80610adb5750610ada8261141d565b5b9050919050565b610aea610d83565b73ffffffffffffffffffffffffffffffffffffffff16610b086106dc565b73ffffffffffffffffffffffffffffffffffffffff1614610b6757610b2b610d83565b6040517f118cdaa7000000000000000000000000000000000000000000000000000000008152600401610b5e9190611e3b565b60405180910390fd5b565b600073ffffffffffffffffffffffffffffffffffffffff168273ffffffffffffffffffffffffffffffffffffffff1603610bdb5760006040517f64a0ae92000000000000000000000000000000000000000000000000000000008152600401610bd29190611e3b565b60405180910390fd5b6000610be983836000610d9d565b9050600073ffffffffffffffffffffffffffffffffffffffff168173ffffffffffffffffffffffffffffffffffffffff1614610c5d5760006040517f73c6ac6e000000000000000000000000000000000000000000000000000000008152600401610c549190611e3b565b60405180910390fd5b505050565b80600660008481526020019081526020016000209081610c8291906123ec565b507ff8e1a15aba9398e019f0b49df1a4fde98ee17ae345cb5f6b5e2c27f5033e8ce782604051610cb29190611db8565b60405180910390a15050565b600080610cca83611487565b9050600073ffffffffffffffffffffffffffffffffffffffff168173ffffffffffffffffffffffffffffffffffffffff1603610d3d57826040517f7e273289000000000000000000000000000000000000000000000000000000008152600401610d349190611db8565b60405180910390fd5b80915050919050565b60006004600083815260200190815260200160002060009054906101000a900473ffffffffffffffffffffffffffffffffffffffff169050919050565b600033905090565b610d9883838360016114c4565b505050565b600080610da984611487565b9050600073ffffffffffffffffffffffffffffffffffffffff168373ffffffffffffffffffffffffffffffffffffffff1614610deb57610dea818486611689565b5b600073ffffffffffffffffffffffffffffffffffffffff168173ffffffffffffffffffffffffffffffffffffffff1614610e7c57610e2d6000856000806114c4565b6001600360008373ffffffffffffffffffffffffffffffffffffffff1673ffffffffffffffffffffffffffffffffffffffff168152602001908152602001600020600082825403925050819055505b600073ffffffffffffffffffffffffffffffffffffffff168573ffffffffffffffffffffffffffffffffffffffff1614610eff576001600360008773ffffffffffffffffffffffffffffffffffffffff1673ffffffffffffffffffffffffffffffffffffffff168152602001908152602001600020600082825401925050819055505b846002600086815260200190815260200160002060006101000a81548173ffffffffffffffffffffffffffffffffffffffff021916908373ffffffffffffffffffffffffffffffffffffffff160217905550838573ffffffffffffffffffffffffffffffffffffffff168273ffffffffffffffffffffffffffffffffffffffff167fddf252ad1be2c89b69c2b068fc378daa952ba7f163c4a11628f55a4df523b3ef60405160405180910390a4809150509392505050565b6000600760009054906101000a900473ffffffffffffffffffffffffffffffffffffffff16905081600760006101000a81548173ffffffffffffffffffffffffffffffffffffffff021916908373ffffffffffffffffffffffffffffffffffffffff1602179055508173ffffffffffffffffffffffffffffffffffffffff168173ffffffffffffffffffffffffffffffffffffffff167f8be0079c531659141344cd1fd0a4f28419497f9722a3daafe3b4186f6b6457e060405160405180910390a35050565b600073ffffffffffffffffffffffffffffffffffffffff168273ffffffffffffffffffffffffffffffffffffffff16036110ee57816040517f5b08ba180000000000000000000000000000000000000000000000000000000081526004016110e59190611e3b565b60405180910390fd5b80600560008573ffffffffffffffffffffffffffffffffffffffff1673ffffffffffffffffffffffffffffffffffffffff16815260200190815260200160002060008473ffffffffffffffffffffffffffffffffffffffff1673ffffffffffffffffffffffffffffffffffffffff16815260200190815260200160002060006101000a81548160ff0219169083151502179055508173ffffffffffffffffffffffffffffffffffffffff168373ffffffffffffffffffffffffffffffffffffffff167f17307eab39ab6107e8899845ad3d59bd9653f200f220920489ca2b5937696c31836040516111df9190611ae3565b60405180910390a3505050565b60008373ffffffffffffffffffffffffffffffffffffffff163b1115611396578273ffffffffffffffffffffffffffffffffffffffff1663150b7a02868685856040518563ffffffff1660e01b815260040161124b9493929190612513565b6020604051808303816000875af192505050801561128757506040513d601f19601f820116820180604052508101906112849190612574565b60015b61130b573d80600081146112b7576040519150601f19603f3d011682016040523d82523d6000602084013e6112bc565b606091505b50600081510361130357836040517f64a0ae920000000000000000000000000000000000000000000000000000000081526004016112fa9190611e3b565b60405180910390fd5b805181602001fd5b63150b7a0260e01b7bffffffffffffffffffffffffffffffffffffffffffffffffffffffff1916817bffffffffffffffffffffffffffffffffffffffffffffffffffffffff19161461139457836040517f64a0ae9200000000000000000000000000000000000000000000000000000000815260040161138b9190611e3b565b60405180910390fd5b505b5050505050565b606060405180602001604052806000815250905090565b60606113bf82610cbe565b5060006113ca61139d565b905060008151116113ea5760405180602001604052806000815250611415565b806113f48461174d565b60405160200161140592919061221c565b6040516020818303038152906040525b915050919050565b60007f01ffc9a7000000000000000000000000000000000000000000000000000000007bffffffffffffffffffffffffffffffffffffffffffffffffffffffff1916827bffffffffffffffffffffffffffffffffffffffffffffffffffffffff1916149050919050565b60006002600083815260200190815260200160002060009054906101000a900473ffffffffffffffffffffffffffffffffffffffff169050919050565b80806114fd5750600073ffffffffffffffffffffffffffffffffffffffff168273ffffffffffffffffffffffffffffffffffffffff1614155b1561163157600061150d84610cbe565b9050600073ffffffffffffffffffffffffffffffffffffffff168373ffffffffffffffffffffffffffffffffffffffff161415801561157857508273ffffffffffffffffffffffffffffffffffffffff168173ffffffffffffffffffffffffffffffffffffffff1614155b801561158b575061158981846108e6565b155b156115cd57826040517fa9fbf51f0000000000000000000000000000000000000000000000000000000081526004016115c49190611e3b565b60405180910390fd5b811561162f57838573ffffffffffffffffffffffffffffffffffffffff168273ffffffffffffffffffffffffffffffffffffffff167f8c5be1e5ebec7d5bd14f71427d1e84f3dd0314c0f7b2291e5b200ac8c7c3b92560405160405180910390a45b505b836004600085815260200190815260200160002060006101000a81548173ffffffffffffffffffffffffffffffffffffffff021916908373ffffffffffffffffffffffffffffffffffffffff16021790555050505050565b61169483838361181b565b61174857600073ffffffffffffffffffffffffffffffffffffffff168373ffffffffffffffffffffffffffffffffffffffff160361170957806040517f7e2732890000000000000000000000000000000000000000000000000000000081526004016117009190611db8565b60405180910390fd5b81816040517f177e802f00000000000000000000000000000000000000000000000000000000815260040161173f9291906125a1565b60405180910390fd5b505050565b60606000600161175c846118dc565b01905060008167ffffffffffffffff81111561177b5761177a611c18565b5b6040519080825280601f01601f1916602001820160405280156117ad5781602001600182028036833780820191505090505b509050600082602001820190505b600115611810578080600190039150507f3031323334353637383961626364656600000000000000000000000000000000600a86061a8153600a8581611804576118036125ca565b5b049450600085036117bb575b819350505050919050565b60008073ffffffffffffffffffffffffffffffffffffffff168373ffffffffffffffffffffffffffffffffffffffff16141580156118d357508273ffffffffffffffffffffffffffffffffffffffff168473ffffffffffffffffffffffffffffffffffffffff161480611894575061189384846108e6565b5b806118d257508273ffffffffffffffffffffffffffffffffffffffff166118ba83610d46565b73ffffffffffffffffffffffffffffffffffffffff16145b5b90509392505050565b600080600090507a184f03e93ff9f4daa797ed6e38ed64bf6a1f010000000000000000831061193a577a184f03e93ff9f4daa797ed6e38ed64bf6a1f01000000000000000083816119305761192f6125ca565b5b0492506040810190505b6d04ee2d6d415b85acef81000000008310611977576d04ee2d6d415b85acef8100000000838161196d5761196c6125ca565b5b0492506020810190505b662386f26fc1000083106119a657662386f26fc10000838161199c5761199b6125ca565b5b0492506010810190505b6305f5e10083106119cf576305f5e10083816119c5576119c46125ca565b5b0492506008810190505b61271083106119f45761271083816119ea576119e96125ca565b5b0492506004810190505b60648310611a175760648381611a0d57611a0c6125ca565b5b0492506002810190505b600a8310611a26576001810190505b80915050919050565b6000604051905090565b600080fd5b600080fd5b60007fffffffff0000000000000000000000000000000000000000000000000000000082169050919050565b611a7881611a43565b8114611a8357600080fd5b50565b600081359050611a9581611a6f565b92915050565b600060208284031215611ab157611ab0611a39565b5b6000611abf84828501611a86565b91505092915050565b60008115159050919050565b611add81611ac8565b82525050565b6000602082019050611af86000830184611ad4565b92915050565b600081519050919050565b600082825260208201905092915050565b60005b83811015611b38578082015181840152602081019050611b1d565b60008484015250505050565b6000601f19601f8301169050919050565b6000611b6082611afe565b611b6a8185611b09565b9350611b7a818560208601611b1a565b611b8381611b44565b840191505092915050565b60006020820190508181036000830152611ba88184611b55565b905092915050565b600073ffffffffffffffffffffffffffffffffffffffff82169050919050565b6000611bdb82611bb0565b9050919050565b611beb81611bd0565b8114611bf657600080fd5b50565b600081359050611c0881611be2565b92915050565b600080fd5b600080fd5b7f4e487b7100000000000000000000000000000000000000000000000000000000600052604160045260246000fd5b611c5082611b44565b810181811067ffffffffffffffff82111715611c6f57611c6e611c18565b5b80604052505050565b6000611c82611a2f565b9050611c8e8282611c47565b919050565b600067ffffffffffffffff821115611cae57611cad611c18565b5b611cb782611b44565b9050602081019050919050565b82818337600083830152505050565b6000611ce6611ce184611c93565b611c78565b905082815260208101848484011115611d0257611d01611c13565b5b611d0d848285611cc4565b509392505050565b600082601f830112611d2a57611d29611c0e565b5b8135611d3a848260208601611cd3565b91505092915050565b60008060408385031215611d5a57611d59611a39565b5b6000611d6885828601611bf9565b925050602083013567ffffffffffffffff811115611d8957611d88611a3e565b5b611d9585828601611d15565b9150509250929050565b6000819050919050565b611db281611d9f565b82525050565b6000602082019050611dcd6000830184611da9565b92915050565b611ddc81611d9f565b8114611de757600080fd5b50565b600081359050611df981611dd3565b92915050565b600060208284031215611e1557611e14611a39565b5b6000611e2384828501611dea565b91505092915050565b611e3581611bd0565b82525050565b6000602082019050611e506000830184611e2c565b92915050565b60008060408385031215611e6d57611e6c611a39565b5b6000611e7b85828601611bf9565b9250506020611e8c85828601611dea565b9150509250929050565b600080600060608486031215611eaf57611eae611a39565b5b6000611ebd86828701611bf9565b9350506020611ece86828701611bf9565b9250506040611edf86828701611dea565b9150509250925092565b600060208284031215611eff57611efe611a39565b5b6000611f0d84828501611bf9565b91505092915050565b611f1f81611ac8565b8114611f2a57600080fd5b50565b600081359050611f3c81611f16565b92915050565b60008060408385031215611f5957611f58611a39565b5b6000611f6785828601611bf9565b9250506020611f7885828601611f2d565b9150509250929050565b600067ffffffffffffffff821115611f9d57611f9c611c18565b5b611fa682611b44565b9050602081019050919050565b6000611fc6611fc184611f82565b611c78565b905082815260208101848484011115611fe257611fe1611c13565b5b611fed848285611cc4565b509392505050565b600082601f83011261200a57612009611c0e565b5b813561201a848260208601611fb3565b91505092915050565b6000806000806080858703121561203d5761203c611a39565b5b600061204b87828801611bf9565b945050602061205c87828801611bf9565b935050604061206d87828801611dea565b925050606085013567ffffffffffffffff81111561208e5761208d611a3e565b5b61209a87828801611ff5565b91505092959194509250565b600080604083850312156120bd576120bc611a39565b5b60006120cb85828601611bf9565b92505060206120dc85828601611bf9565b9150509250929050565b7f4e487b7100000000000000000000000000000000000000000000000000000000600052602260045260246000fd5b6000600282049050600182168061212d57607f821691505b6020821081036121405761213f6120e6565b5b50919050565b7f4e487b7100000000000000000000000000000000000000000000000000000000600052601160045260246000fd5b600061218082611d9f565b915061218b83611d9f565b92508282019050808211156121a3576121a2612146565b5b92915050565b60006060820190506121be6000830186611e2c565b6121cb6020830185611da9565b6121d86040830184611e2c565b949350505050565b600081905092915050565b60006121f682611afe565b61220081856121e0565b9350612210818560208601611b1a565b80840191505092915050565b600061222882856121eb565b915061223482846121eb565b91508190509392505050565b60008190508160005260206000209050919050565b60006020601f8301049050919050565b600082821b905092915050565b6000600883026122a27fffffffffffffffffffffffffffffffffffffffffffffffffffffffffffffffff82612265565b6122ac8683612265565b95508019841693508086168417925050509392505050565b6000819050919050565b60006122e96122e46122df84611d9f565b6122c4565b611d9f565b9050919050565b6000819050919050565b612303836122ce565b61231761230f826122f0565b848454612272565b825550505050565b600090565b61232c61231f565b6123378184846122fa565b505050565b5b8181101561235b57612350600082612324565b60018101905061233d565b5050565b601f8211156123a05761237181612240565b61237a84612255565b81016020851015612389578190505b61239d61239585612255565b83018261233c565b50505b505050565b600082821c905092915050565b60006123c3600019846008026123a5565b1980831691505092915050565b60006123dc83836123b2565b9150826002028217905092915050565b6123f582611afe565b67ffffffffffffffff81111561240e5761240d611c18565b5b6124188254612115565b61242382828561235f565b600060209050601f8311600181146124565760008415612444578287015190505b61244e85826123d0565b8655506124b6565b601f19841661246486612240565b60005b8281101561248c57848901518255600182019150602085019450602081019050612467565b868310156124a957848901516124a5601f8916826123b2565b8355505b6001600288020188555050505b505050505050565b600081519050919050565b600082825260208201905092915050565b60006124e5826124be565b6124ef81856124c9565b93506124ff818560208601611b1a565b61250881611b44565b840191505092915050565b60006080820190506125286000830187611e2c565b6125356020830186611e2c565b6125426040830185611da9565b818103606083015261255481846124da565b905095945050505050565b60008151905061256e81611a6f565b92915050565b60006020828403121561258a57612589611a39565b5b60006125988482850161255f565b91505092915050565b60006040820190506125b66000830185611e2c565b6125c36020830184611da9565b9392505050565b7f4e487b7100000000000000000000000000000000000000000000000000000000600052601260045260246000fdfea26469706673582212206d1afdf4eeb15438317211128f33a9be5ec35cd5c2dea8ccc1f22a9654716c6464736f6c634300081c0033",
  "linkReferences": {},
  "deployedLinkReferences": {}
}