{
  "_format": "hh-sol-artifact-1",
  "contractName": "CourseManager",
  "sourceName": "contracts/CertificateManager.sol",
  "abi": [
    {
      "inputs": [
        {
          "internalType": "address",
          "name": "certificateAddress",
          "type": "address"
        }
      ],
      "stateMutability": "nonpayable",
      "type": "constructor"
    },
    {
      "inputs": [
        {
          "internalType": "address",
          "name": "owner",
          "type": "address"
        }
      ],
      "name": "OwnableInvalidOwner",
      "type": "error"
    },
    {
      "inputs": [
        {
          "internalType": "address",
          "name": "account",
          "type": "address"
        }
      ],
      "name": "OwnableUnauthorizedAccount",
      "type": "error"
    },
    {
      "anonymous": false,
      "inputs": [
        {
          "indexed": true,
          "internalType": "address",
          "name": "user",
          "type": "address"
        },
        {
          "indexed": true,
          "internalType": "uint256",
          "name": "courseId",
          "type": "uint256"
        },
        {
          "indexed": false,
          "internalType": "uint256",
          "name": "tokenId",
          "type": "uint256"
        }
      ],
      "name": "CertificateClaimed",
      "type": "event"
    },
    {
      "anonymous": false,
      "inputs": [
        {
          "indexed": true,
          "internalType": "address",
          "name": "user",
          "type": "address"
        },
        {
          "indexed": true,
          "internalType": "uint256",
          "name": "courseId",
          "type": "uint256"
        },
        {
          "indexed": false,
          "internalType": "uint256",
          "name": "newCoinCount",
          "type": "uint256"
        }
      ],
      "name": "CoinRewarded",
      "type": "event"
    },
    {
      "anonymous": false,
      "inputs": [
        {
          "indexed": true,
          "internalType": "uint256",
          "name": "courseId",
          "type": "uint256"
        },
        {
          "indexed": false,
          "internalType": "uint256",
          "name": "minCoinsRequired",
          "type": "uint256"
        }
      ],
      "name": "CourseAdded",
      "type": "event"
    },
    {
      "anonymous": false,
      "inputs": [
        {
          "indexed": true,
          "internalType": "address",
          "name": "previousOwner",
          "type": "address"
        },
        {
          "indexed": true,
          "internalType": "address",
          "name": "newOwner",
          "type": "address"
        }
      ],
      "name": "OwnershipTransferred",
      "type": "event"
    },
    {
      "inputs": [
        {
          "internalType": "uint256",
          "name": "courseId",
          "type": "uint256"
        },
        {
          "internalType": "uint256",
          "name": "tokenId",
          "type": "uint256"
        }
      ],
      "name": "addCertificateToCourse",
      "outputs": [],
      "stateMutability": "nonpayable",
      "type": "function"
    },
    {
      "inputs": [
        {
          "internalType": "uint256",
          "name": "courseId",
          "type": "uint256"
        },
        {
          "internalType": "uint256",
          "name": "minCoinsRequired",
          "type": "uint256"
        }
      ],
      "name": "addCourse",
      "outputs": [],
      "stateMutability": "nonpayable",
      "type": "function"
    },
    {
      "inputs": [
        {
          "internalType": "address",
          "name": "user",
          "type": "address"
        },
        {
          "internalType": "uint256",
          "name": "courseId",
          "type": "uint256"
        }
      ],
      "name": "canClaimCertificate",
      "outputs": [
        {
          "internalType": "bool",
          "name": "",
          "type": "bool"
        }
      ],
      "stateMutability": "view",
      "type": "function"
    },
    {
      "inputs": [],
      "name": "certificate",
      "outputs": [
        {
          "internalType": "contract CertificateNFT",
          "name": "",
          "type": "address"
        }
      ],
      "stateMutability": "view",
      "type": "function"
    },
    {
      "inputs": [
        {
          "internalType": "uint256",
          "name": "courseId",
          "type": "uint256"
        }
      ],
      "name": "claimCertificate",
      "outputs": [],
      "stateMutability": "nonpayable",
      "type": "function"
    },
    {
      "inputs": [
        {
          "internalType": "uint256",
          "name": "",
          "type": "uint256"
        }
      ],
      "name": "courses",
      "outputs": [
        {
          "internalType": "uint256",
          "name": "minCoinsRequired",
          "type": "uint256"
        },
        {
          "internalType": "bool",
          "name": "exists",
          "type": "bool"
        },
        {
          "internalType": "uint256",
          "name": "currentIndex",
          "type": "uint256"
        }
      ],
      "stateMutability": "view",
      "type": "function"
    },
    {
      "inputs": [
        {
          "internalType": "address",
          "name": "user",
          "type": "address"
        },
        {
          "internalType": "uint256",
          "name": "courseId",
          "type": "uint256"
        }
      ],
      "name": "getUserCoins",
      "outputs": [
        {
          "internalType": "uint256",
          "name": "",
          "type": "uint256"
        }
      ],
      "stateMutability": "view",
      "type": "function"
    },
    {
      "inputs": [
        {
          "internalType": "address",
          "name": "",
          "type": "address"
        },
        {
          "internalType": "uint256",
          "name": "",
          "type": "uint256"
        }
      ],
      "name": "hasReceivedCertificate",
      "outputs": [
        {
          "internalType": "bool",
          "name": "",
          "type": "bool"
        }
      ],
      "stateMutability": "view",
      "type": "function"
    },
    {
      "inputs": [],
      "name": "owner",
      "outputs": [
        {
          "internalType": "address",
          "name": "",
          "type": "address"
        }
      ],
      "stateMutability": "view",
      "type": "function"
    },
    {
      "inputs": [],
      "name": "renounceOwnership",
      "outputs": [],
      "stateMutability": "nonpayable",
      "type": "function"
    },
    {
      "inputs": [
        {
          "internalType": "address",
          "name": "user",
          "type": "address"
        },
        {
          "internalType": "uint256",
          "name": "courseId",
          "type": "uint256"
        }
      ],
      "name": "rewardCoin",
      "outputs": [],
      "stateMutability": "nonpayable",
      "type": "function"
    },
    {
      "inputs": [
        {
          "internalType": "address",
          "name": "newOwner",
          "type": "address"
        }
      ],
      "name": "transferOwnership",
      "outputs": [],
      "stateMutability": "nonpayable",
      "type": "function"
    },
    {
      "inputs": [
        {
          "internalType": "address",
          "name": "",
          "type": "address"
        },
        {
          "internalType": "uint256",
          "name": "",
          "type": "uint256"
        }
      ],
      "name": "userCourseCoins",
      "outputs": [
        {
          "internalType": "uint256",
          "name": "",
          "type": "uint256"
        }
      ],
      "stateMutability": "view",
      "type": "function"
    }
  ],
  "bytecode": "0x608060405234801561001057600080fd5b506040516117a03803806117a083398181016040528101906100329190610223565b33600073ffffffffffffffffffffffffffffffffffffffff168173ffffffffffffffffffffffffffffffffffffffff16036100a55760006040517f1e4fbdf700000000000000000000000000000000000000000000000000000000815260040161009c919061025f565b60405180910390fd5b6100b4816100fc60201b60201c565b5080600160006101000a81548173ffffffffffffffffffffffffffffffffffffffff021916908373ffffffffffffffffffffffffffffffffffffffff1602179055505061027a565b60008060009054906101000a900473ffffffffffffffffffffffffffffffffffffffff169050816000806101000a81548173ffffffffffffffffffffffffffffffffffffffff021916908373ffffffffffffffffffffffffffffffffffffffff1602179055508173ffffffffffffffffffffffffffffffffffffffff168173ffffffffffffffffffffffffffffffffffffffff167f8be0079c531659141344cd1fd0a4f28419497f9722a3daafe3b4186f6b6457e060405160405180910390a35050565b600080fd5b600073ffffffffffffffffffffffffffffffffffffffff82169050919050565b60006101f0826101c5565b9050919050565b610200816101e5565b811461020b57600080fd5b50565b60008151905061021d816101f7565b92915050565b600060208284031215610239576102386101c0565b5b60006102478482850161020e565b91505092915050565b610259816101e5565b82525050565b60006020820190506102746000830184610250565b92915050565b611517806102896000396000f3fe608060405234801561001057600080fd5b50600436106100cf5760003560e01c80638da5cb5b1161008c578063d9a26b3b11610066578063d9a26b3b14610214578063e977a9ec14610230578063f2fde38b1461024c578063f7182ff814610268576100cf565b80638da5cb5b1461019457806396f979d2146101b25780639a95ef87146101e4576100cf565b806319c4f9e4146100d45780631a53e5e3146100f05780631dc4f5cb146101205780632dbf7b98146101505780633dc38fc11461016e578063715018a61461018a575b600080fd5b6100ee60048036038101906100e99190610f35565b610298565b005b61010a60048036038101906101059190610fd3565b610344565b604051610117919061102e565b60405180910390f35b61013a60048036038101906101359190610fd3565b610373565b6040516101479190611058565b60405180910390f35b6101586103ce565b60405161016591906110d2565b60405180910390f35b61018860048036038101906101839190610f35565b6103f4565b005b610192610571565b005b61019c610585565b6040516101a991906110fc565b60405180910390f35b6101cc60048036038101906101c79190611117565b6105ae565b6040516101db93929190611144565b60405180910390f35b6101fe60048036038101906101f99190610fd3565b6105e5565b60405161020b919061102e565b60405180910390f35b61022e60048036038101906102299190611117565b610778565b005b61024a60048036038101906102459190610fd3565b610b1e565b005b6102666004803603810190610261919061117b565b610c92565b005b610282600480360381019061027d9190610fd3565b610d18565b60405161028f9190611058565b60405180910390f35b6102a0610d3d565b6002600083815260200190815260200160002060010160009054906101000a900460ff16610303576040517f08c379a00000000000000000000000000000000000000000000000000000000081526004016102fa90611205565b60405180910390fd5b600260008381526020019081526020016000206002018190806001815401808255809150506001900390600052602060002001600090919091909150555050565b60046020528160005260406000206020528060005260406000206000915091509054906101000a900460ff1681565b6000600360008473ffffffffffffffffffffffffffffffffffffffff1673ffffffffffffffffffffffffffffffffffffffff168152602001908152602001600020600083815260200190815260200160002054905092915050565b600160009054906101000a900473ffffffffffffffffffffffffffffffffffffffff1681565b6103fc610d3d565b6002600083815260200190815260200160002060010160009054906101000a900460ff1615610460576040517f08c379a000000000000000000000000000000000000000000000000000000000815260040161045790611271565b60405180910390fd5b6040518060800160405280828152602001600115158152602001600067ffffffffffffffff81111561049557610494611291565b5b6040519080825280602002602001820160405280156104c35781602001602082028036833780820191505090505b5081526020016000815250600260008481526020019081526020016000206000820151816000015560208201518160010160006101000a81548160ff0219169083151502179055506040820151816002019080519060200190610527929190610e90565b5060608201518160030155905050817fdcd3dc499f1efd81e420ac9ec6b90dc1de6f0537ad2fdfaa2fd666531e15bdb2826040516105659190611058565b60405180910390a25050565b610579610d3d565b6105836000610dc4565b565b60008060009054906101000a900473ffffffffffffffffffffffffffffffffffffffff16905090565b60026020528060005260406000206000915090508060000154908060010160009054906101000a900460ff16908060030154905083565b60008060026000848152602001908152602001600020604051806080016040529081600082015481526020016001820160009054906101000a900460ff161515151581526020016002820180548060200260200160405190810160405280929190818152602001828054801561067a57602002820191906000526020600020905b815481526020019060010190808311610666575b505050505081526020016003820154815250509050806020015180156106fb5750600460008573ffffffffffffffffffffffffffffffffffffffff1673ffffffffffffffffffffffffffffffffffffffff168152602001908152602001600020600084815260200190815260200160002060009054906101000a900460ff16155b801561075b57508060000151600360008673ffffffffffffffffffffffffffffffffffffffff1673ffffffffffffffffffffffffffffffffffffffff16815260200190815260200160002060008581526020019081526020016000205410155b801561076f57508060400151518160600151105b91505092915050565b6002600082815260200190815260200160002060010160009054906101000a900460ff166107db576040517f08c379a00000000000000000000000000000000000000000000000000000000081526004016107d290611205565b60405180910390fd5b600460003373ffffffffffffffffffffffffffffffffffffffff1673ffffffffffffffffffffffffffffffffffffffff168152602001908152602001600020600082815260200190815260200160002060009054906101000a900460ff1615610879576040517f08c379a00000000000000000000000000000000000000000000000000000000081526004016108709061130c565b60405180910390fd5b6002600082815260200190815260200160002060000154600360003373ffffffffffffffffffffffffffffffffffffffff1673ffffffffffffffffffffffffffffffffffffffff1681526020019081526020016000206000838152602001908152602001600020541015610922576040517f08c379a000000000000000000000000000000000000000000000000000000000815260040161091990611378565b60405180910390fd5b60006002600083815260200190815260200160002090508060020180549050816003015410610986576040517f08c379a000000000000000000000000000000000000000000000000000000000815260040161097d906113e4565b60405180910390fd5b6000816002018260030154815481106109a2576109a1611404565b5b906000526020600020015490508160030160008154809291906109c490611462565b9190505550600160009054906101000a900473ffffffffffffffffffffffffffffffffffffffff1673ffffffffffffffffffffffffffffffffffffffff166323b872dd610a0f610585565b33846040518463ffffffff1660e01b8152600401610a2f939291906114aa565b600060405180830381600087803b158015610a4957600080fd5b505af1158015610a5d573d6000803e3d6000fd5b505050506001600460003373ffffffffffffffffffffffffffffffffffffffff1673ffffffffffffffffffffffffffffffffffffffff168152602001908152602001600020600085815260200190815260200160002060006101000a81548160ff021916908315150217905550823373ffffffffffffffffffffffffffffffffffffffff167f1f7348089f1aca3f3db011a8d0170871f0c80633a66c7e4a09ed08238241842683604051610b119190611058565b60405180910390a3505050565b610b26610d3d565b6002600082815260200190815260200160002060010160009054906101000a900460ff16610b89576040517f08c379a0000000000000000000000000000000000000000000000000000000008152600401610b8090611205565b60405180910390fd5b600360008373ffffffffffffffffffffffffffffffffffffffff1673ffffffffffffffffffffffffffffffffffffffff16815260200190815260200160002060008281526020019081526020016000206000815480929190610bea90611462565b9190505550808273ffffffffffffffffffffffffffffffffffffffff167f1e7bba388d3aedc3d8d1b728f48e20cfebb886d09f120329210f0d51d9236379600360008673ffffffffffffffffffffffffffffffffffffffff1673ffffffffffffffffffffffffffffffffffffffff168152602001908152602001600020600085815260200190815260200160002054604051610c869190611058565b60405180910390a35050565b610c9a610d3d565b600073ffffffffffffffffffffffffffffffffffffffff168173ffffffffffffffffffffffffffffffffffffffff1603610d0c5760006040517f1e4fbdf7000000000000000000000000000000000000000000000000000000008152600401610d0391906110fc565b60405180910390fd5b610d1581610dc4565b50565b6003602052816000526040600020602052806000526040600020600091509150505481565b610d45610e88565b73ffffffffffffffffffffffffffffffffffffffff16610d63610585565b73ffffffffffffffffffffffffffffffffffffffff1614610dc257610d86610e88565b6040517f118cdaa7000000000000000000000000000000000000000000000000000000008152600401610db991906110fc565b60405180910390fd5b565b60008060009054906101000a900473ffffffffffffffffffffffffffffffffffffffff169050816000806101000a81548173ffffffffffffffffffffffffffffffffffffffff021916908373ffffffffffffffffffffffffffffffffffffffff1602179055508173ffffffffffffffffffffffffffffffffffffffff168173ffffffffffffffffffffffffffffffffffffffff167f8be0079c531659141344cd1fd0a4f28419497f9722a3daafe3b4186f6b6457e060405160405180910390a35050565b600033905090565b828054828255906000526020600020908101928215610ecc579160200282015b82811115610ecb578251825591602001919060010190610eb0565b5b509050610ed99190610edd565b5090565b5b80821115610ef6576000816000905550600101610ede565b5090565b600080fd5b6000819050919050565b610f1281610eff565b8114610f1d57600080fd5b50565b600081359050610f2f81610f09565b92915050565b60008060408385031215610f4c57610f4b610efa565b5b6000610f5a85828601610f20565b9250506020610f6b85828601610f20565b9150509250929050565b600073ffffffffffffffffffffffffffffffffffffffff82169050919050565b6000610fa082610f75565b9050919050565b610fb081610f95565b8114610fbb57600080fd5b50565b600081359050610fcd81610fa7565b92915050565b60008060408385031215610fea57610fe9610efa565b5b6000610ff885828601610fbe565b925050602061100985828601610f20565b9150509250929050565b60008115159050919050565b61102881611013565b82525050565b6000602082019050611043600083018461101f565b92915050565b61105281610eff565b82525050565b600060208201905061106d6000830184611049565b92915050565b6000819050919050565b600061109861109361108e84610f75565b611073565b610f75565b9050919050565b60006110aa8261107d565b9050919050565b60006110bc8261109f565b9050919050565b6110cc816110b1565b82525050565b60006020820190506110e760008301846110c3565b92915050565b6110f681610f95565b82525050565b600060208201905061111160008301846110ed565b92915050565b60006020828403121561112d5761112c610efa565b5b600061113b84828501610f20565b91505092915050565b60006060820190506111596000830186611049565b611166602083018561101f565b6111736040830184611049565b949350505050565b60006020828403121561119157611190610efa565b5b600061119f84828501610fbe565b91505092915050565b600082825260208201905092915050565b7f496e76616c696420636f75727365000000000000000000000000000000000000600082015250565b60006111ef600e836111a8565b91506111fa826111b9565b602082019050919050565b6000602082019050818103600083015261121e816111e2565b9050919050565b7f436f7572736520616c7265616479206578697374730000000000000000000000600082015250565b600061125b6015836111a8565b915061126682611225565b602082019050919050565b6000602082019050818103600083015261128a8161124e565b9050919050565b7f4e487b7100000000000000000000000000000000000000000000000000000000600052604160045260246000fd5b7f416c726561647920726563656976656400000000000000000000000000000000600082015250565b60006112f66010836111a8565b9150611301826112c0565b602082019050919050565b60006020820190508181036000830152611325816112e9565b9050919050565b7f4e6f7420656e6f75676820636f696e7300000000000000000000000000000000600082015250565b60006113626010836111a8565b915061136d8261132c565b602082019050919050565b6000602082019050818103600083015261139181611355565b9050919050565b7f4e6f206365727469666963617465206c65667400000000000000000000000000600082015250565b60006113ce6013836111a8565b91506113d982611398565b602082019050919050565b600060208201905081810360008301526113fd816113c1565b9050919050565b7f4e487b7100000000000000000000000000000000000000000000000000000000600052603260045260246000fd5b7f4e487b7100000000000000000000000000000000000000000000000000000000600052601160045260246000fd5b600061146d82610eff565b91507fffffffffffffffffffffffffffffffffffffffffffffffffffffffffffffffff820361149f5761149e611433565b5b600182019050919050565b60006060820190506114bf60008301866110ed565b6114cc60208301856110ed565b6114d96040830184611049565b94935050505056fea2646970667358221220b8d790316fe5faf8c8cd5dc96f1568f7be66a194b9e1d1fc23822ecb5fc79fe064736f6c634300081c0033",
  "linkReferences": {},
  "deployedLinkReferences": {}
}